:100000000C94E0080C94FD080C94FD080C94FD0879
:100010000C94FD080C94FD080C94FD080C94FD084C
:100020000C94FD080C94FD080C94E31C0C941F1C0C
:100030000C948F260C94FD080C94FD080C94FD087C
:100040000C94FD080C94FD080C94FD080C94FD081C
:100050000C94FD080C9433260C94FD080C94FD08B8
:100060000C94FD080C94FD080C94FD080C94FD08FC
:100070000C94FD080C94FD080C94FD080C94FD08EC
:100080000C94FD080C94FD080C94FD080C94FD08DC
:100090000C94FD080C94FD080C94FD080C94FD08CC
:1000A0000C94FD080C94FD080C94FD08DA0CF90C76
:1000B000FE0C030D080D0D0D120D170D1C0D210D5D
:1000C000260D5D0A400D430D460D490D4C0D4F0D9B
:1000D000510D690D0A0E0A0E440E440E8F0E91103A
:1000E00031109110AB0E890F9A0F9A0F9C119F112E
:1000F000A211A511A811AB11AE11E716EA16ED1663
:10010000F016F516FA16FF1610171D172A173717CF
:10011000441751175E176B17761781178C179717AF
:10012000A217AD17B817C317CE17D917E4172E1A91
:10013000551AF71B551AF71B9D1AC01AF71BBB1B44
:10014000CE1B8A298A299D299D2993299D299D298C
:100150009D298A298A2998299D299D29982929003C
:100160002B0035000351015100001E001400040053
:100170001D00135310511F001A0016001B000451DC
:100180000251200008000700060050002C0021004A
:100190001500090019004F000100220017000A0095
:1001A0000500000001002300010000000100000024
:1001B000115324000100000001000000125125002D
:1001C0001C000B00110000000100260018000D00AB
:1001D00010005100010027000C000E0036005200F4
:1001E00028002D0012000F003700380001002E00FB
:1001F00013002F003300310001002A0034003000CA
:1002000003514C00000029012B013501065101006A
:1002100000001E01140104011D01010001001F0165
:100220001A0116011B0107510551200108010701A0
:10023000060150012C0121011501090119014F018D
:100240000100220117010A0105010000010023013C
:100250000100000001000000010024010100000075
:1002600001000000010025011C010B01110100002B
:100270000100260118010D011001510101002701A3
:100280000C010E013601520128012D0112010F014E
:100290003701380101002E0113012F013301310113
:1002A00001002A013401300106514C0100002904EB
:1002B0002B0435040851055100001E0414040404E5
:1002C0001D04010001001F041A0416041B04095137
:1002D0000100200408040704060450042C0421042F
:1002E0001504090419044F040100220417040A0428
:1002F00005040000010023040100000001000000CB
:100300000100240401000000010000000100250498
:100310001C040B04110400000100260418040D0441
:1003200010045104010027040C040E043604520486
:1003300028042D0412040F043704380401002E048D
:1003400013042F043304310401002A04340430045C
:1003500008514C04000029022B023502010006510D
:1003600000001E02140204021D02010001001F020F
:100370001A0216021B020A51085120020802070243
:10038000060250022C0221021502090219024F0234
:100390000100220217020A020502000001002302E6
:1003A0000100000001000000010024020100000023
:1003B00001000000010025021C020B0211020000D6
:1003C0000100260218020D0210025102010027024C
:1003D0000C020E023602520228022D0212020F02F5
:1003E0003702380201002E0213022F0233023102BB
:1003F00001002A023402300201004C0200002908E8
:100400002B0835080A51075100001E08140804087B
:100410001D08010001001F081A0816081B0801002A
:100420000951200808080708060850082C08210868
:100430001508090819084F080100220817080A08BA
:100440000508000001002308010000000100000071
:10045000010024080100000001000000010025083F
:100460001C080B08110800000100260818080D08D8
:1004700010085108010027080C080E083608520819
:1004800028082D0812080F083708380801002E0820
:1004900013082F083308310801002A0834083008EF
:1004A0000A514C08000029052B0535050B510100A8
:1004B00000001E05140504051D05010001001F05AF
:1004C0001A0516051B050C51010020050805070536
:1004D000060550052C0521051505090519054F05CB
:1004E0000100220517050A05050500000100230586
:1004F00001000000010000000100240501000000CF
:1005000001000000010025051C050B051105000078
:100510000100260518050D051005510501002705E8
:100520000C050E053605520528052D0512050F058B
:100530003705380501002E0513052F053305310554
:1005400001002A05340530050B514C050000290334
:100550002B0335030100010000001E0314030403F4
:100560001D03010001001F031A0316031B030D5195
:100570000B51200308030703060350032C03210338
:100580001503090319034F030100220317030A038C
:10059000050300000100230301000000010000002A
:1005A00001002403010000000100000001002503F8
:1005B0001C030B03110300000100260318030D03A5
:1005C00010035103010027030C030E0336035203EB
:1005D00028032D0312030F033703380301002E03F2
:1005E00013032F033303310301002A0334033003C1
:1005F00001004C03000029092B0935090D510100A8
:1006000000001E09140904091D09010001001F0949
:100610001A0916091B0901000C51200908090709CC
:10062000060950092C0921091509090919094F0959
:100630000100220917090A09050900000100230920
:100640000100000001000000010024090100000079
:1006500001000000010025091C090B091109000017
:100660000100260918090D0910095109010027097F
:100670000C090E093609520928092D0912090F091A
:100680003709380901002E0913092F0933093109E7
:1006900001002A09340930090D514C0900002906CE
:1006A0002B06350601000B5100001E061406040639
:1006B0001D06010001001F061A0616061B060E5134
:1006C0000100200608060706060650062C0621062D
:1006D0001506090619064F060100220617060A0626
:1006E00005060000010023060100000001000000D3
:1006F00001002406010000000100000001002506A1
:100700001C060B06110600000100260618060D0641
:1007100010065106010027060C060E063606520684
:1007200028062D0612060F063706380601002E068B
:1007300013062F063306310601002A06340630065A
:1007400001004C060000290C2B0C350C0E510C51ED
:1007500000001E0C140C040C1D0C010001001F0CE9
:100760001A0C160C1B0C01000100200C080C070CC5
:10077000060C500C2C0C210C150C090C190C4F0CF0
:100780000100220C170C0A0C050C00000100230CC0
:1007900001000000010000000100240C0100000025
:1007A000010000000100250C1C0C0B0C110C0000BA
:1007B0000100260C180C0D0C100C510C0100270C1C
:1007C0000C0C0E0C360C520C280C2D0C120C0F0CB1
:1007D000370C380C01002E0C130C2F0C330C310C81
:1007E00001002A0C340C300C0E514C0C0000290A6C
:1007F0002B0A350A01000D5100001E0A140A040AD2
:100800001D0A010001001F0A1A0A160A1B0A01002C
:100810000E51200A080A070A060A500A2C0A210A61
:10082000150A090A190A4F0A0100220A170A0A0AB8
:10083000050A00000100230A010000000100000079
:100840000100240A01000000010000000100250A47
:100850001C0A0B0A110A00000100260A180A0D0AD8
:10086000100A510A0100270A0C0A0E0A360A520A17
:10087000280A2D0A120A0F0A370A380A01002E0A1E
:10088000130A2F0A330A310A01002A0A340A300AED
:1008900001004C0A000029072B0735070100010061
:1008A00000001E07140704071D07010001001F07B1
:1008B0001A0716071B070F51010020070807070733
:1008C000060750072C0721071507090719074F07C7
:1008D0000100220717070A07050700000100230788
:1008E00001000000010000000100240701000000D9
:1008F00001000000010025071C070B07110700007D
:100900000100260718070D071007510701002707E8
:100910000C070E073607520728072D0712070F0787
:100920003707380701002E0713072F073307310752
:1009300001002A073407300701004C070000290D89
:100940002B0D350D0F51010000001E0D140D040D6F
:100950001D0D010001001F0D1A0D160D1B0D0100CC
:100960000100200D080D070D060D500D2C0D210D59
:10097000150D090D190D4F0D0100220D170D0A0D52
:10098000050D00000100230D010000000100000022
:100990000100240D01000000010000000100250DF0
:1009A0001C0D0B0D110D00000100260D180D0D0D75
:1009B000100D510D0100270D0C0D0E0D360D520DB1
:1009C000280D2D0D120D0F0D370D380D01002E0DB8
:1009D000130D2F0D330D310D01002A0D340D300D87
:1009E0000F514C0D0000290B2B0B350B01000100A2
:1009F00000001E0B140B040B1D0B010001001F0B4C
:100A00001A0B160B1B0B01000F51200B080B070BC9
:100A1000060B500B2C0B210B150B090B190B4F0B55
:100A20000100220B170B0A0B050B00000100230B22
:100A300001000000010000000100240B0100000083
:100A4000010000000100250B1C0B0B0B110B00001B
:100A50000100260B180B0D0B100B510B0100270B7F
:100A60000C0B0E0B360B520B280B2D0B120B0F0B16
:100A7000370B380B01002E0B130B2F0B330B310BE5
:100A800001002A0B340B300B01004C0B0000290E27
:100A90002B0E350E01000F5100001E0E140E040E19
:100AA0001D0E010001001F0E1A0E160E1B0E010076
:100AB0000100200E080E070E060E500E2C0E210E01
:100AC000150E090E190E4F0E0100220E170E0A0EFA
:100AD000050E00000100230E0100000001000000CF
:100AE0000100240E01000000010000000100250E9D
:100AF0001C0E0B0E110E00000100260E180E0D0E1E
:100B0000100E510E0100270E0C0E0E0E360E520E58
:100B1000280E2D0E120E0F0E370E380E01002E0E5F
:100B2000130E2F0E330E310E01002A0E340E300E2E
:100B300001004C0E0000290F2B0F350F01000100A2
:100B400000001E0F140F040F1D0F010001001F0FE6
:100B50001A0F160F1B0F01000100200F080F070FBF
:100B6000060F500F2C0F210F150F090F190F4F0FE4
:100B70000100220F170F0A0F050F00000100230FBD
:100B800001000000010000000100240F010000002E
:100B9000010000000100250F1C0F0B0F110F0000BA
:100BA0000100260F180F0D0F100F510F0100270F16
:100BB0000C0F0E0F360F520F280F2D0F120F0F0FA5
:100BC000370F380F01002E0F130F2F0F330F310F78
:100BD00001002A0F340F300F01004C0F00000100FC
:100BE00001000100E10001000000010001002700F8
:100BF00001000100010001004A0022020100010081
:100C0000010001004D00200201000100010001006F
:100C100001002102010001000100010001000100AA
:100C200001000000010001000100000001000000BF
:100C3000010001004B0000004E0000000100010017
:100C400001005000010000000100010001005100FE
:100C5000010001000100010001005200010001003B
:100C60000100010001004F0001000100010001002E
:100C7000010001000100010001000100010001006C
:100C8000E50001000000290001000100E100E00092
:100C900000001E000100010001000100C65C1F00F1
:100CA000010001000100E300C95C20000100010017
:100CB00001000100CA5C21000100010001000100E7
:100CC000C55C22000100010001000000C35C23009C
:100CD00001000000460000000100240001000000A7
:100CE000010000004B0025005200510026020000C8
:100CF00052002600240021001E00010050002700A1
:100D0000250022001F0037004F002D002600230081
:100D10002000270051002E005500570027022E000A
:100D20004E002A0054005600580001000000010047
:100D300001000100010001000000010001000100AC
:100D4000010001000100010001000100010001009B
:100D5000010001000100010001000100010001008B
:100D6000010001000100010001000100010001007B
:100D7000010000000100010001000000010000006E
:100D8000010001000100000001000000010001005D
:100D90000100010001000000055D010001000100EB
:100DA00001000100035D01000100010001000100DC
:100DB000075D01000100010001000100065D010066
:100DC0000100010001000100045D010001000100BB
:100DD000010001000000290001000100E100E00025
:100DE00000003A00440070000100010001003B00D7
:100DF000450071000100E300E2003C006800720061
:100E00000100010001003D006900730001000100C4
:100E100001003E006A0001000100000001003F00E7
:100E20006B00000046000000010040006C00000064
:100E300001000000010041006D0001000100000000
:100E4000010042006E0001000100010001004300AA
:100E50006F0001000100010001000100010001001C
:100E6000010001000100010001000100010001007A
:100E70000100010001000100E50001000000000187
:100E8000010101010101010102020202020202024A
:100E9000020303030303030303040404040404041C
:100EA00005050505050606060606070707070708E0
:100EB000080808090909090A0A0A0B0B0B0C0C0C93
:100EC0000D0D0D0E0E0E0F0F0F101011111112122D
:100ED00013131414151516161717181819191A1AAA
:100EE0001B1B1C1D1D1E1E1F20202122222324240B
:100EF000252626272829292A2B2C2D2D2E2F303147
:100F00003232333435363738393A3B3C3D3E3F4058
:100F10004142434445464748494A4C4D4E4F505143
:100F20005354555658595A5B5D5E5F6162646566FD
:100F300068696B6C6D6F7072737577787A7B7D7E84
:100F40008082838587888A8C8E8F91939596989AD4
:100F50009C9EA0A2A3A5A7A9ABADAFB1B3B5B7BAEC
:100F6000BCBEC0C2C4C6C9CBCDCFD1D4D6D8DBDDC0
:100F7000DFE2E4E7E9EBEEF0F3F5F8FAFDFF050157
:100F80000980A10185031A81002A83001601002629
:100F90000300950175108100C0050C0901A10185B0
:100FA000041A01002A9C02160100269C0295017574
:100FB000108100C005010906A1018505050719E09A
:100FC00029E715002501950875018102050719001B
:100FD00029EF1500250195F0750181020508190119
:100FE0002905950575019102950175039101C005CB
:100FF000010906A101050719E029E715002501955A
:1010000008750181029501750881010507190029FC
:10101000FF150026FF0095067508810005081901D7
:101020002905950575019102950175039101C00986
:10103000023B00020100A0FA0904000001030101C3
:101040000009211101000122400007058103080069
:101050000A09040100010300000009211101000137
:101060002271000705820320000A1201100100000E
:101070000008EDFE07130100010203010403300024
:10108000000016034500720067006F0064006F00E7
:101090007800200045005A00000008035A00530061
:1010A000410000000403090400047F3F1F64321460
:1010B000643214783C1E1E140A05FFAA7F55402294
:1010C00023252628292A2C2D2F3032333536383A3D
:1010D0003B3D3E4042434547494A4C4E5051535593
:1010E00057595A5C5E6062646668696B6D6F7173B4
:1010F0007577797B7D7F81838587898A8C8E9092B5
:101100009496989A9C9E9FA1A3A5A7A8AAACAEAFBF
:10111000B1B3B4B6B8B9BBBCBEBFC1C2C3C5C6C704
:10112000C9CACBCCCDCED0D1D2D2D3D4D5D6D7D7B5
:10113000D8D9D9DADADBDBDBDCDCDCDCDCDDDDDDFD
:10114000DDDCDCDCDCDCDBDBDBDADAD9D9D8D7D7F9
:10115000D6D5D4D3D2D2D1D0CECDCCCBCAC9C7C6A6
:10116000C5C3C2C1BFBEBCBBB9B8B6B4B3B1AFAEE4
:10117000ACAAA8A7A5A3A19F9E9C9A98969492908A
:101180008E8C8A89878583817F7D7B797775737162
:101190006F6D6B6968666462605E5C5A595755533F
:1011A00051504E4C4A4947454342403E3D3B3A38F8
:1011B00036353332302F2D2C2A292826252322009C
:1011C00011241FBECFEFDAE0DEBFCDBF12E0A0E0FA
:1011D000B1E0E6E6FEE502C005900D92A232B1074D
:1011E000D9F726E0A2E2B2E001C01D92A03AB20710
:1011F000E1F70E94B91E0C94312F0C9400004F921D
:101200005F926F927F929F92AF92BF92CF92DF9246
:10121000EF92FF920F931F93CF93DF9300D000D0F4
:101220001F92CDB7DEB7FC010081F18083819481EC
:10123000892B39F01FEFF11206C091E00F3F19F42E
:1012400003C091E001C090E090FD9EC76F0185E072
:10125000DE01119601900D928A95E1F7F601228147
:1012600089819A81222349F00E94E627182F682F4E
:1012700089819A810E94602803C00E943328182F18
:1012800024E5129FF001112436E0F39EE00DF11DDC
:101290001124E00FF11DEE0FFF1FE25AFE4F0591E2
:1012A000149180912205811156C0F601828181112D
:1012B000E7C00430FDE51F0719F188F403303DE570
:1012C000130709F096C00E948B2B0E94F72882E238
:1012D00092E090935D0580935C0581E01CC0063030
:1012E0008DE51807D9F007309DE5190709F081C091
:1012F00060910601709107014FEF8CE195E015C0F8
:101300000E948B2B0E94F7288CE195E090935D055D
:1013100080935C0582E08093220536C760910801C6
:101320007091090141E082E292E00F900F900F90DE
:101330000F900F90DF91CF911F910F91FF90EF9041
:10134000DF90CF90BF90AF909F907F906F905F9015
:101350004F900C94E9230530EDE51E0799F5F60151
:101360009281992309F410C7813039F0823039F520
:1013700080915C0590915D051AC080915C0590910B
:101380005D05F2E082329F0739F0FC013697228139
:10139000222311F0CF01F5CF90930901809308012A
:1013A0000EC0FC0136962281222329F0CF0105E0F0
:1013B0008C319007B1F7909307018093060110924A
:1013C0002205E2C6813059F0823099F4609108011B
:1013D0007091090196014FEF8CE195E008C0609192
:1013E000060170910701960141E082E292E00E94BD
:1013F000F9180930FDE51F0709F047C0F6018281A1
:10140000882309F471C09091640581E0890F877089
:10141000987F853020F4892B8093640502C09093D7
:101420006405809164058770FFEF8F9FC0011124D0
:1014300095958795959587959927909389008093A1
:10144000880090938B0080938A0090938D00809306
:101450008C0040916405509165056091660570911E
:1014600067058FE090E00E94992D60917905709159
:101470007A0580917B0590917C050E948C1634C082
:101480000930FDE51F0709F4BECFF60182810A305D
:10149000FDE51F0741F00B302DE5120729F58823E4
:1014A00009F472C60AC0882309F46EC69091230518
:1014B00081E089278093230567C681E00F900F9014
:1014C0000F900F900F90DF91CF911F910F91FF9090
:1014D000EF90DF90CF90BF90AF909F907F906F90F4
:1014E0005F904F900C948D12F6018281882319F140
:1014F000033E3CE51307C1F050F4013E9CE519079B
:1015000081F0023EECE51E07B1F481E010C0043E1C
:10151000FCE51F0759F0053E2CE5120761F484E055
:1015200006C01092600505C082E001C083E0809390
:1015300060050E94621317FF71C0F6018281882343
:1015400009F46CC080919006809324051092900657
:1015500080916005813071F048F08230C1F08430B4
:10156000E1F486EE0E94262C88E115C082EE0E94EE
:10157000392C13C083E00E94AB2B88E10E94392CE8
:1015800088E10E94CA2B83E00E94A02B06C082EE55
:101590000E94392C87E50E94262C8FE39CE9019755
:1015A000F1F700C000005801E894B7F82CE0E22EF3
:1015B000F12CC5010E2C02C0969587950A94E2F78E
:1015C000282F2F7041F0822F90E02A3010F44D9692
:1015D00004C0069702C087E290E00E94262C94E0A7
:1015E000E91AF108ECEFEE16EFEFFE0611F7809125
:1015F0006005813039F040F0823031F0843051F4B0
:1016000088E206C08CE204C082EE0E94CA2B02C0AF
:101610000E94262C8091240580939006033FFCE5D0
:101620001F07C1F180F4083D3CE51307C9F0093DEF
:101630008CE51807D9F1073D9CE51907D1F526E29D
:1016400041EE61EE10C0053FECE51E0759F130F1A7
:10165000063F2CE5120769F527E245EE66EE03C06A
:1016600027E245EE65EEC6010F900F900F900F90A8
:101670000F90DF91CF911F910F91FF90EF90DF902E
:10168000CF90BF90AF909F907F906F905F904F9062
:101690000C942D2526E241EE60EEE5CF27E245EEE3
:1016A00064EEE1CF26E241EE62EEDDCF28E241E0DA
:1016B000D9CFF6019281992309F44CC110922505E6
:1016C0000230FCE51F0708F42FC106312CE5120794
:1016D00038F098012A5F3C452730310508F024C1D5
:1016E0000E94152790937705809376050F303CE58F
:1016F000130709F4CFC008F042C008309CE5190771
:1017000009F4A8C0F0F40430FCE51F0709F490C008
:1017100068F402303CE5130709F486C003301C4529
:1017200009F0DFC0809176058260D9C006309CE563
:10173000190709F487C008F089C080917605886090
:10174000CEC00B30FCE51F0709F495C068F40930E2
:101750003CE5130709F482C00A301C4509F0C1C0FA
:1017600080917605886080C00D309CE5190709F4EA
:1017700086C008F087C0809176058D7FB0C00A3F93
:10178000FCE51F0709F457C050F502313CE513078B
:1017900009F488C068F400319CE5190709F47EC09B
:1017A00001311C4509F09DC0809176058F7B97C063
:1017B0000431FCE51F0709F487C008F479C005313E
:1017C0001C4509F08EC08091760582FB222720F906
:1017D00091E0922790FB82F990FB83F980C00D3F46
:1017E0008CE5180709F452C058F40B3FECE51E07CE
:1017F00029F10C3F1C4509F074C08091770560C049
:101800000F3F2CE5120709F458C080F101151D4562
:1018100009F067C080917705982F909591708E7F21
:10182000892B90FB81F94DC080917605816057C06E
:101830008091760519C0809177051BC0809177054E
:1018400082603FC080917605806149C080917605B5
:10185000806245C080917605806441C00E948B2BD8
:101860008091760580683BC0846039C0809177059F
:101870008260816026C0809176058E7F30C0809125
:10188000760519C080917605877F29C080917705FC
:101890008D7F17C0809176058F7E21C0809176055F
:1018A0008F7D1DC00E948B2B809176058F7717C08E
:1018B00080917605877F8B7F12C0809177058D7F21
:1018C0008E7F809377050DC00E948B2B80917605CB
:1018D00087FB222720F991E0922790FB87F98093DC
:1018E0007605609176051091770584E090E00E947E
:1018F000872D612F81E290E00E94872D0F900F903D
:101900000F900F900F90DF91CF911F910F91FF904B
:10191000EF90DF90CF90BF90AF909F907F906F90AF
:101920005F904F900C948B2B809190060631FCE5D4
:101930001F07A1F58A7A91E009F490E090932605BB
:10194000882311F065E301C069E28EEF95E00E9403
:10195000E0260EC006311C4509F018C1809126050D
:10196000882309F40FC465E38EEF95E00E94B82642
:101970000F900F900F900F900F90DF91CF911F91CC
:101980000F91FF90EF90DF90CF90BF90AF909F901E
:101990007F906F905F904F900C94A0278272F80117
:1019A000E25CFC45E431F10508F095C0EA5AFF4FCE
:1019B0000C94F12D8091940580FF16C00F900F902C
:1019C0000F900F900F90DF91CF911F910F91FF908B
:1019D000EF90DF90CF90BF90AF909F907F906F90EF
:1019E0005F904F900C947416816080939405869557
:1019F00065CD40E952E169E972E12CC049E952E163
:101A000060E972E127C04CE451E165E571E122C073
:101A100045E551E16CE471E11DC044E351E160E44E
:101A200071E118C040E451E164E371E113C04CE19D
:101A300051E168E271E10EC048E251E16CE171E10F
:101A400009C046E252E167E372E104C047E352E1B4
:101A500066E272E10F900F900F900F900F90DF9160
:101A6000CF911F910F91FF90EF90DF90CF90BF909B
:101A7000AF909F907F906F905F904F900C94352423
:101A800065E082E010C068E086E00DC06EE089E0AD
:101A90000AC064E18FE007C067E185E104C088E126
:101AA0000DCD62E289E10F900F900F900F900F9093
:101AB000DF91CF911F910F91FF90EF90DF90CF902A
:101AC000BF90AF909F907F906F905F904F900C94DD
:101AD000242483E2F3CC0115ECE51E07D1F00E3D82
:101AE0001C4509F053C00F900F900F900F900F906E
:101AF000DF91CF911F910F91FF90EF90DF90CF90EA
:101B0000BF90AF909F907F906F905F904F900C949C
:101B100026270E948B2B0FEF14E32CE0015010407E
:101B20002040E1F700C00000F89481E08093E000DD
:101B300080E28093D8001092C9008FE19EE4019763
:101B4000F1F700C000001DBA109268001CBC10BE66
:101B50001FBA10927A0010926E0010926F001092CD
:101B60007100109272001092C9001092BC0014B85B
:101B700017B81AB81DB810BA1092BC0015B818B82A
:101B80001BB81EB811BA0C94003FFEC2F6010081CA
:101B90001181992349F0C8010E94E627F82E682F89
:101BA000C8010E94602804C0C8010E943328F82E92
:101BB000B8018F2D0E9468138C01B82EF601E580C4
:101BC000E2949FE0E922F280F11010928F0680915A
:101BD0008D06877079F0FF2069F080E2800F8830F1
:101BE00048F082E00E94BD2880918D068770AA246B
:101BF000A3948111A12C912E92948FE09822892D8B
:101C000090E08C30910508F08CC2FC01E659FF4F42
:101C10000C94F12D812F807F1F70882311F0129575
:101C2000107FFF20B9F0112309F405C280E2800F74
:101C3000883010F0B11006C080919006182B1093D8
:101C4000900605C080918F06182B10938F060E9476
:101C5000A027F1C1802F0E94CA2B112309F461C271
:101C6000005E1095083010F0B11006C0809190060B
:101C700018231093900605C080918F0618231093A7
:101C80008F060E94A0274DC2812F807F1F70803257
:101C900011F01295107FBB2021F0F1E0BF16E1F0AA
:101CA00028C0FF2081F080919106EE2051F001E0E4
:101CB000E01207C0182B181709F433C210939106CD
:101CC00030C2812B10C0EE2021F021E0E21609F491
:101CD00028C20E949A271FC0FF2041F031E03E1524
:101CE00008F41FC2812F0E94C02B1BC2E11019C231
:101CF00012C0FF2019F0EE20A9F39DC1EE2059F08B
:101D0000093309F0AAC18FEF97EEE3E081509040CC
:101D1000E040E1F7A0C1812F0E94B52B02C2812FC4
:101D200086958695837019F0813059F0FAC1FF20AD
:101D300019F0C801937002C080E090E00E94C723B0
:101D4000F6C1FF2019F0C801937002C080E090E056
:101D50000E94B123ECC1812F837009F069C0F1109A
:101D6000E4C1902F929596959770990F990F802FB7
:101D70008F70482E512C612C712C092E04C0440CFC
:101D8000551C661C771C0A94D2F704FF12C04FE062
:101D900050E060E070E004C0440F551F661F771FDD
:101DA0009A95D2F7DB01CA0180959095A095B095E0
:101DB00003C080E090E0DC0116951695412F43703A
:101DC000423019F1C8F400919206109193062091C7
:101DD000940630919506413059F084299529A62919
:101DE000B729BC01CD0160237123822393230AC04C
:101DF000402A512A622A732ABC01CD01642975291F
:101E0000862997290E94FC2890C184299529A62912
:101E1000B729009192061091930620919406309173
:101E20009506BC01CD016027712782279327EACF51
:101E3000FF2019F0812F817001C08695882309F455
:101E400074C1902F929596959770990F990F802F46
:101E50008F70482E512C612C712C092E04C0440C1B
:101E6000551C661C771C0A94D2F704FF12C04FE081
:101E700050E060E070E004C0440F551F661F771FFC
:101E80009A95D2F7DB01CA0180959095A095B095FF
:101E900003C080E090E0DC0116951695412F437059
:101EA0004230D9F068F50091790510917A052091BA
:101EB0007B0530917C05413059F084299529A6296C
:101EC000B729BC01CD0160237123822393231EC057
:101ED000402A512A622A732A13C084299529A629E7
:101EE000B7290091790510917A0520917B053091F1
:101EF0007C05BC01CD01602771278227932706C08E
:101F0000BC01CD0164297529862997290E948C2856
:101F10000CC11F70FF2039F0812F0E94D628802F1E
:101F20000E94C02B02C1802F0E94B52B812F0E94DE
:101F30009828FBC0802FF2EFBF1609F43EC0FB15B6
:101F400038F020EFB21661F031EFB31689F16EC0B0
:101F500093EFB916C9F1E4EFBE1609F44BC066C0A1
:101F6000FF2009F1E110DDC01F7181E090E0A0E0E9
:101F7000B0E0AC01BD0104C0440F551F661F771FC0
:101F80001A95D2F78091790590917A05A0917B05F9
:101F9000B0917C058A019B01082719272A273B2736
:101FA000C901B80121C021E02E1508F4BAC0DCCF68
:101FB000FF2029F0812F8F712BC0FF20D9F3812FB3
:101FC0008F710E949828ADC0FF2089F01F7181E0B9
:101FD00090E0A0E0B0E0BC01CD0104C0660F771F27
:101FE000881F991F1A95D2F70E948C289AC00E94C8
:101FF000F72897C0FF2079F01F71812F0E94D62803
:1020000038E0139FC0011124836080938D06812FD7
:102010000E94D62886C081E00E94BD2881E08E15EE
:1020200008F07FC082E00E94BD287BC0FF2039F00D
:10203000EE2009F4BFCF802F0E94392C72C0EE2011
:1020400009F4BDCF893349F49FEFE7EEF3E09150F7
:10205000E040F040E1F700C00000802F0E94CA2B52
:1020600060C012EFB116E1F01B1538F020EFB21688
:1020700069F031EFB31611F12BC084EFB816C9F037
:10208000B81660F095EFB91671F022C0FF2009F480
:102090004EC090919B0681E0892708C081E0F82618
:1020A000F0929B0644C0F11042C081E080939B06F1
:1020B0003EC0F1103CC010929B0639C0FF2029F0B1
:1020C00080919A06882329F329C0EE2011F32FC0AE
:1020D00080919A06EE20C1F0882341F090919B06F2
:1020E00081E0892780939B0610929A06802FFF201B
:1020F00019F00E94392C1BC00E94CA2B86E0F60101
:1021000011928A95E9F713C0882389F0F1100FC066
:1021100090919B0681E0892780939B0610929A06F6
:1021200006C088EF890D843010F40E94DD23AA20B8
:1021300059F180918D0680FD27C0F60112828595A8
:10214000859585950E94D628C6010E94FF0880913A
:102150008D068595859585950F900F900F900F9022
:102160000F90DF91CF911F910F91FF90EF90DF9033
:10217000CF90BF90AF909F907F906F905F904F9067
:102180000C94982869E2F0CB0F900F900F900F906D
:102190000F90DF91CF911F910F91FF90EF90DF9003
:1021A000CF90BF90AF909F907F906F905F904F9037
:1021B00008959091760592FF0DC0282F2871283040
:1021C00019F4877F846006C0282F2471243011F40D
:1021D0008B7F886093FF0DC0282F2871283119F458
:1021E000877E846106C0282F2471243111F48B7EF0
:1021F00088612091770520FF0DC0382F3871383065
:1022000019F4877F816006C0382F3171313011F4A5
:102210008E7F886021FF0DC0282F2871283119F486
:10222000877E816106C0282F2171213111F48E7EB5
:10223000886194FD877E0895E4E9F5E043812CE010
:10224000421B08F440E021E0628181810C948E24DD
:10225000E4E9F5E043812CE0420F08F44FEF21E080
:10226000628181810C948E24E4E9F5E062812FEF94
:10227000621B08F460E021E0438181810C948E248C
:10228000E4E9F5E062812FEF620F08F46FEF21E0DF
:10229000438181810C948E24E4E9F5E0818121E081
:1022A000438162818C500C948E24E4E9F5E08181B5
:1022B00021E043816281845F0C948E24CF93E82FC8
:1022C000873080F580910B0190910C01892B09F0EA
:1022D00047C0CE2F64E670E080E40E94C32C909348
:1022E0000C0180930B01892BD1F464E670E082E14C
:1022F0000E941A2D90930C0180930B01892B79F485
:1023000081E090E001C0880FCA95EAF764E670E0CA
:1023100080950E941A2D90930C0180930B01CF9110
:102320000C946F2D90E0FC013797E730F105C0F475
:10233000EA58FF4F0C94F12D209A289811C0219A49
:1023400029980EC0229A2A980BC0239A2B9808C06D
:10235000529A5A9805C0539A5B9802C03E9A469882
:10236000CF910895CF93873008F03FC080910B0143
:1023700090910C01892B09F041C064E670E080E483
:102380000E94C32C90930C0180930B01892B11F0B8
:10239000C0E027C064E670E083E10E941A2D9093AC
:1023A0000C0180930B01892B99F764E670E081E4BE
:1023B0000E94C32C90930C0180930B01892B41F751
:1023C00084E690E00E944A2D97FF05C090930C018F
:1023D00080930B01DDCFC82FC09510920C01109295
:1023E0000B010E946F2D8C2F0AC09FB18FB1807F8F
:1023F000869586959370892B809501C080E0CF915A
:10240000089580919405282F269530E021153105F7
:1024100019F48170826005C02532310524F0817085
:102420008864809394050895CF92DF92EF92FF9293
:102430006B017C010E940112B701A60188E090E0C7
:10244000FF90EF90DF90CF900C94992D809198059C
:10245000882319F0815080939805609194057091BC
:10246000950580919605909197050C941412809192
:102470009805833018F48F5F8093980560919405D8
:102480007091950580919605909197050C94141282
:102490009091940590FF35C09170811102C09260B7
:1024A00006C0853210F0986402C0880F982B909374
:1024B0009405662351F06091940570919505809183
:1024C0009605909197050E94141260919405669567
:1024D00070E04BE050E087E191E00E94242F892BCF
:1024E00019F010929A0502C00E94A12581E0809304
:1024F00091054091970560919605809195050C9402
:102500002A25089560E00C944812E4E9F5E0808102
:102510008160808386950C94821261E00C9448124D
:10252000809194058695815009F484E261E00C94D1
:1025300048128091940586958F5F853208F081E07E
:1025400061E00C944812E4E9F5E083E080831182B5
:102550008FEF828383831482608171818281938172
:102560000C941412BF92CF92DF92EF92FF920F93CE
:102570001F93CF93DF93E82EF62EE901E42FF0E0CE
:10258000611106C0E258F14F8491B82EE82F71C056
:10259000262F30E0E258F14FE491FE2FCE2ED12CC1
:1025A00046E0849FC00111240FEF10E0B8010E94A3
:1025B000C92D4BEA4603C001479F900D11248E0D93
:1025C000911D8E0D911D982F990F890FD801A21B77
:1025D000B30BAC9DA001AD9D500DBC9D500D1124C1
:1025E000B52EF89ED0011124AB2FBB277801EA1A33
:1025F000FB0AEC9CD001ED9CB00DFC9CB00D1124AD
:102600007801E81AF108E29EC001E39E900DF29E67
:10261000900D1124892F9927081B190B0C9D9001EF
:102620000D9D300D1C9D300D1124832F62307105DE
:1026300091F048F461157105E1F061307105B9F46C
:102640008E2FEB2F16C06430710569F040F06630B4
:10265000710579F00CC08E2FE52FB32E0AC0E52F3F
:10266000BF2E8B2F06C0852FBE2EE32F02C0852FD5
:10267000BB2EE9838883BA821B82DF91CF911F91A1
:102680000F91FF90EF90DF90CF90BF900895CF9380
:10269000DF9300D000D0CDB7DEB79091940590FFC6
:1026A0000AC09E012F5F3F4F0E94B2124B81698189
:1026B0008A810E943B240F900F900F900F90DF9122
:1026C000CF910895609160058CE090E00C94872D87
:1026D000CF93DF9324E5829FC0011124FC0146E0E3
:1026E000749FE00DF11D1124E60FF11DEE0FFF1F89
:1026F000E25AFE4FC591D491CE01C238D10569F19D
:10270000B0F4C133D10509F475C048F4C932D1051C
:1027100009F469C0CA32D10509F473C085C0C53354
:10272000D10509F459C0C933D105B9F07DC0C33E04
:10273000D10571F138F4C03ED105B1F0C23ED105EA
:1027400011F172C0C63ED105B9F1C73ED105C9F13C
:10275000C43ED10509F068C024C02091760520FD53
:102760005DC021FD5BC060C02091760520FD50C09A
:102770002091770520FF4DC18091760584FD47C1EA
:1027800083EE90E046C12091760522FF42C1F4CF4E
:102790008091760582FD3FC08091770580FD3EC027
:1027A000EBCF2091770521FF34C18091760584FD20
:1027B0002EC187EE90E02DC12091760523FF29C11F
:1027C000F4CF8091760583FD2CC08091770581FF41
:1027D000ECCF84EE90E01DC12091760525FF19C154
:1027E00089E290E016C12091760525FF12C185E3AC
:1027F00090E00FC12091760526FF0BC18AE290E0A0
:1028000008C12091760526FF04C181E390E001C153
:1028100089E390E0FEC082EE90E0FBC080EE90E0A5
:10282000F8C086EE90E0F5C0C11552E5D50708F076
:102830006BC0C11521E5D20728F09C2F8827816F36
:10284000906AE7C0C83ED10570F5C03ED10508F0DA
:10285000E0C0C83AD105B8F4C53AD10550F08C2F84
:10286000855AC82FD0E0CF50DE4F888190E0906429
:10287000D0C0C130D10509F4CCC008F4C8C0249739
:1028800008F4C5C0C6C0CF3BD10508F0C0C08C2F2E
:10289000885AC82FD0E0CC0FDD1FCC50DE4F888186
:1028A00099819464B6C0C11540E5D407F0F0CE011B
:1028B000F4E096958795FA95E1F7282F23703C2F41
:1028C000337081E090E002C0880F991F3A95E2F7DB
:1028D0009C68922B2C2F2F702695269550E2259FD1
:1028E00090011124822B932B94C0C11550E4D5077D
:1028F00020F0CE019F70906A8CC09E013A95211500
:102900003F4108F486C083C0C11556E5D50708F0DD
:102910003FC0C11585E5D80748F08C2F0E94D9101B
:102920008F7190E0982F8827906273C0C11524E5BD
:10293000D20728F09C2F8827846F906A6AC09E0176
:10294000237033279C2F96959695C115D34580F417
:1029500041E050E002C0440F551F2A95E2F780E2A3
:10296000989F90011124CA01822B932B9C6851C01F
:1029700041E050E002C0440F551F2A95E2F780E283
:10298000989F90011124CA01822B932B9A6841C011
:10299000C1155AE5D50778F5C11589E5D80710F1B5
:1029A0008C2F8F700E94D9109E0194E03695279548
:1029B0009A95E1F72F7030E0322F22273069A90174
:1029C000482B0EC090568115904208F58D2F8F71BF
:1029D0000E94D9109E01332730628F71A901582BB4
:1029E000CA0117C0C11528E5D20788F09C2F882797
:1029F000806F906A0EC0C1154BE5D40740F0CE0140
:102A0000C1155CE5D507F0F69927906602C080E015
:102A100090E0DF91CF91089580E290E090930C01D7
:102A200080930B0180912A0581110EC00E94BD2C5C
:102A300081E080932A052FEF83ED90E321508040C1
:102A40009040E1F700C0000064E670E080E40E947E
:102A5000C32C90930C0180930B01892B09F04EC07D
:102A600064E670E080E00E941A2D90930C01809340
:102A70000B01892B09F042C064E670E080E00E94FF
:102A80001A2D90930C0180930B01892BB9F564E604
:102A900070E08FE30E941A2D90930C0180930B013C
:102AA000892B61F50E946F2D64E670E080E40E943E
:102AB000C32C90930C0180930B01892BF9F464E6ED
:102AC00070E08CE00E941A2D90930C0180930B0112
:102AD000892BA1F464E670E080E00E941A2D9093A7
:102AE0000C0180930B01892B49F464E670E08FE3BD
:102AF0000E941A2D90930C0180930B010E946F2D60
:102B000080910B010895CF93DF9356985E98259896
:102B10002D9826982E9827982F98C8E8D0E08FEF08
:102B200090E099838883AAE8B0E011969C938E93F5
:102B3000ECE8F0E091838083259A2D9A2FEF80E7CF
:102B400092E0215080409040E1F700C00000269ABA
:102B50002E9A2FEF80E792E0215080409040E1F7DD
:102B600000C00000279A2F9A2FEF80E792E02150B3
:102B700080409040E1F700C0000025982D982FEF8D
:102B800080E792E0215080409040E1F700C00000D3
:102B900026982E982FEF80E792E0215080409040B9
:102BA000E1F700C0000027982F9880916405877096
:102BB0002FEF829FC0011124959587959595879554
:102BC00099279983888311969C938E939183808310
:102BD00056985E9825982D9826982E9827982F9885
:102BE000DF91CF910895EF92FF920F931F93CF93B0
:102BF000DF938091940580FF08C00EEA15E08AEE0D
:102C0000E82E85E0F82EF8010CC0EEEAF5E011821E
:102C1000108212821382349685E0EA3EF807B9F7F3
:102C2000ECCF928120813181892F291708F4822FDE
:102C3000381708F4832F8383381B3183281B2083A4
:102C4000981B92833496EE16FF0659F70E94BD2C0E
:102C500064E670E084E80E94C32CCEEAD5E064E626
:102C600070E088810E941A2D64E670E089810E94DC
:102C70001A2D64E670E08A810E941A2D64E670E0E5
:102C80008B810E941A2D2496EC16FD0641F70E94B6
:102C90006F2D579A8BB18F779BB190682FB7F894AF
:102CA000E016F10699F0F80131918F0148E09BB9E7
:102CB000000000C037FF8BB9330F000000C000C018
:102CC00000C08BB900C04A9591F7EACF2FBF8FE3C0
:102CD00091E00197F1F700C00000DF91CF911F91C3
:102CE0000F91FF90EF900895E4E9F5E080818E7FE9
:102CF000808360817181828193810E94141210927D
:102D00009A052FEF80E792E0215080409040E1F754
:102D100000C000000C94F315CF92DF92EF92FF9267
:102D20006B017C01AA27BB270097A105B10511F013
:102D3000E0E103C0D701C601E0E0492F5A2F6B2F15
:102D40007727411551056105710519F0E85FDB0131
:102D5000CA01AC01BD01F4E076956795579547959A
:102D6000FA95D1F7411551056105710519F0EC5F30
:102D7000DB01CA01AC01BD0132E07695679557953C
:102D800047953A95D1F7411551056105710519F03F
:102D9000EE5FDB01CA01B695A79597958795892BBC
:102DA0008A2B8B2B09F0EF5F56985E9825982D980B
:102DB00026982E9827982F988E2F90E0FC01319717
:102DC000E730F10518F5E358FF4F0C94F12D259AE3
:102DD0002D9A26C0269A2E9A30C0279A2F9A3AC04A
:102DE000259A2D9A269A2E9A42C0259A2D9A279A8C
:102DF0002F9A4AC0269A2E9A279A2F9A52C0259A1D
:102E00002D9A269A2E9A279A2F9A58C08091230598
:102E1000E331F10508F0E5C0EC57FF4F0C94F12DBC
:102E200080912305811105C10E94851281E00E94D5
:102E300082124FEF6FEF88E6D1C080912305811198
:102E4000F8C00E94851281E00E9482124FEF6FEF5E
:102E500087EBC4C0809123058111EBC00E948512CD
:102E600081E00E9482124FEF6FEF8DE8B7C0809132
:102E700023058111DEC00E94851281E00E9482122A
:102E80004FEF6FEF87EEAAC0809123058111D1C06B
:102E90000E94851281E00E9482124FEF6FEF88E856
:102EA0009DC0809123058111C4C00E94851281E0DC
:102EB0000E9482124FEF6AE986EA90C08091230552
:102EC0008111B7C00E94851281E00E9482124FEFEB
:102ED0006BEC80E083C08111ACC00E94851281E060
:102EE0000E9482124FEF6EEE8AEC78C08111A1C071
:102EF0000E94851281E00E9482124FEF67EF82E10B
:102F00006DC0811196C00E94851281E00E948212DC
:102F10004FEF6FE98EEB62C081118BC00E9485126A
:102F200081E00E9482124FEF66EF84EE57C081115C
:102F300080C00E94851281E00E94821242EB61EB08
:102F40008DE54CC0811175C00E94851281E00E9400
:102F500082124FEB65ED80EA41C081116AC00E9488
:102F6000851281E00E94821240EA67EB8FEC36C046
:102F700081115FC00E94851281E00E94821248EE9A
:102F80006CEC82E72BC0811154C00E94851281E055
:102F90000E9482124FEF6FEF86EC20C0811149C072
:102FA0000E94851281E00E9482124EEC6FEF86E44F
:102FB00015C081113EC00E94851281E00E948212DC
:102FC00048E968E983E70AC0811133C00E9485128D
:102FD00081E00E9482124FEF6FEF8FEF0E942A254F
:102FE00028C0811126C088E090E00E947B2D60936C
:102FF0009405709395058093960590939705862F79
:1030000060FF15C081608093940586950E948D12A3
:103010008091940586950E948D1221E0409197053C
:1030200060919605809195050E948E2402C00E94B1
:103030007416C701B601FF90EF90DF90CF9008950E
:1030400084B1807F84B985B1807F85B98AB1837F5F
:103050008AB98BB1837F8BB93E984698089580B327
:103060008C7080BB81B3836F81BB0895BF92CF9278
:10307000DF92EF92FF920F931F93CF93DF93809194
:103080000B0190910C01892B91F0809129058F5FA4
:103090008093290581110BC00E940C1590E090933C
:1030A0000C0180930B01892B11F40E94831598E683
:1030B000E92E95E0F92E8701C0E0B12C87E0C82EFB
:1030C000CC0E8C2F0E945E118C2D0E945E118C2FD5
:1030D0000E94B211F8019081891721F08083DD24CC
:1030E000D39401C0D12C8C2D0E94B211F80197818C
:1030F000891719F0878381E001C080E0D82ABD28B4
:103100000E942018CF5F0F5F1F4FC730B9F60E9493
:1031100083266AEF70E00E94C92D9C01682F809180
:1031200028058823E9F110922805E0915E05F091C9
:103130005F05DF011E9690E07BEF0AEF10E08081D3
:103140008B3FA9F0482F50E0681728F06901C41A96
:10315000D50AA60106C0E801C41BD50BAE01420F7B
:10316000531F4E31510514F0708301C091E0319628
:10317000EA17FB0721F790932805B11002C09111BF
:1031800011C010922705E0915E05F0915F059091C6
:103190002805A0E8B5E0AF01425F5F4F80E007C0BF
:1031A000B110EFCF809127058111EBCF17C0E70158
:1031B00029917E013C91321741F030813B3F21F44F
:1031C00060832C9391E001C081E031961196E41761
:1031D000F50769F790932805809327058B2DDF91DC
:1031E000CF911F910F91FF90EF90DF90CF90BF9004
:1031F0000895F9012281A0915C05B0915D0521112E
:1032000003C0A817B907C9F086E04802A00111243D
:10321000CD01841B950B6817790779F086E0019042
:103220000D928A95E1F780915C0590915D05480FBC
:10323000591F50935D0540935C050895EF92FF92EE
:103240000F931F93CF93DF937C018B010E94D41DBA
:10325000811119C0E70101151105A1F08091E80065
:1032600085FD0AC08091E8008E778093E8000E9477
:10327000D41D882381F307C089918093F100015008
:103280001109E9CF80E0DF91CF911F910F91FF905D
:10329000EF9008951F93CF93DF93CDB7DEB7AA9732
:1032A0000FB6F894DEBF0FBECDBFE4E5F5E0809128
:1032B000F100819325E0EC35F207C9F780915505BF
:1032C000833009F460C030F4813071F0823009F449
:1032D0009AC0B1C08A3009F486C08B3009F46BC043
:1032E000893009F0A8C020C080915405813A09F0C6
:1032F000A2C08091E800877F8093E8008091580504
:1033000090915905892B21F460E280E395E003C098
:1033100060E080E090E070E00E945B1E8091E80039
:103320008B778093E80087C080915405813209F043
:1033300082C08091580590915905029708F07BC092
:103340008091E800877F8093E8008091E80082FD0B
:1033500005C0809152058111F8CF6DC02091F30016
:103360008091F20090E0922B029729F48091F10075
:103370008B7F813021F48091F10080932F05809123
:10338000E8008B7754C080915405813A09F053C00E
:103390008091580590915905892B09F04CC0809176
:1033A000E800877F8093E8008091E80080FFFCCFF1
:1033B00080910A0137C0809154058132E1F58091F6
:1033C000580590915905892BB1F58091E800877FC8
:1033D0008093E8000E94071E8091560580930A01A1
:1033E0000E948B2B28C080915405813221F5809159
:1033F000E800877F8093E8000E94071E80915705B0
:1034000080932E0518C080915405813AA1F48091D3
:10341000E800877F8093E8008091E80080FFFCCF80
:1034200080912E058093F1008091E8008E77809343
:10343000E8000E94071E8091E80083FFD8C18091B8
:10344000540590915505492F50E04A30510508F038
:10345000CEC1FA01E956FF4F0C94F12D803821F0CE
:10346000823809F0C4C108C080915005909151057F
:10347000992389F082600FC0809158058F70873042
:1034800008F0B5C18093E9008091EB0085FB8827A7
:1034900080F91092E9009091E800977F9093E800FE
:1034A0008093F1001092F10071C1282F2D7F09F057
:1034B0009EC1882319F0823061F099C18091560530
:1034C000813009F094C1933009F080E08093510578
:1034D0002EC08091560581112AC0809158058F70A9
:1034E0002FEF280F263008F082C18093E900209149
:1034F000EB0020FF1CC0933021F48091EB00806230
:1035000014C09091EB0090619093EB0021E030E0CB
:10351000A90102C0440F551F8A95E2F74093EA00C3
:103520001092EA008091EB0088608093EB0010928B
:10353000E9008091E800877F2CC1811158C110916A
:1035400056051F778091E3008078812B8093E300FC
:103550008091E800877F8093E8000E94071E809199
:10356000E80080FFFCCF8091E30080688093E30057
:10357000111102C082E001C083E08093520537C17F
:103580008058823008F033C18091560590915705DC
:103590008C3D53E0950779F583E08A838AE289833D
:1035A0004FB7F894DE01139620E03EE051E2E32F9E
:1035B000F0E050935700E49120FF03C0E295EF70D4
:1035C0003F5FEF708E2F90E0EA3010F0C79601C099
:1035D000C0968D939D932F5F243149F74FBF809103
:1035E000E800877F8093E8006AE270E0CE010196F0
:1035F0000E945B1EBAC04091580550915905292F71
:10360000332723303105B1F068F42130310509F456
:10361000FDC02230310509F0EAC08BE390E0EFE213
:10362000F0E150C02132310581F12232310509F437
:1036300039C0DDC0992781309105B9F070F0823032
:103640009105D9F0039709F0D2C0ECE7F0E1E491DD
:103650008E2F90E0ECE7F0E132C0E4EAF0E1E49193
:103660008E2F90E0E4EAF0E12AC0EAE9F0E1E4918B
:103670008E2F90E0EAE9F0E122C0E2E8F0E1E49187
:103680008E2F90E0E2E8F0E11AC04115510509F4EF
:10369000C2C04130510509F0AAC089E090E0EAE5D6
:1036A000F0E110C04115510509F4BAC0413051058F
:1036B00009F09DC081E790E0EEE7FFE003C00097CE
:1036C00009F495C02091E800277F2093E80020911D
:1036D0005A0530915B058217930708F49C0140E07E
:1036E0002115310589F180915205882309F43DC0E7
:1036F0008530D9F18091E80083FD37C08091E800E2
:1037000082FD2FC08091E80080FFEACF4091F30056
:103710008091F20090E0942B2115310559F088300A
:10372000910540F444914093F100319621503109C4
:103730000196F2CF41E0089709F040E08091E8005F
:103740008E778093E800CCCF4111CDCF0AC0809115
:103750005205882351F0853041F08091E80083FDC7
:1037600004C08091E80082FFF2CF8091E8008B775F
:103770008093E8003CC08038D1F58091E800877FD5
:103780008093E800809153058093F1008091E800D8
:103790008E778093E8000E94071E29C0811127C000
:1037A00080915605909157059927029704F58091CD
:1037B000E800877F8093E800109156051093530529
:1037C0000E94071E111106C08091E30087FD02C010
:1037D00081E001C084E08093520542E061EC81E029
:1037E0000E94261E42E261EC82E00E94261E809129
:1037F000E80083FF1AC08091E800877F8093E8008B
:103800008091EB0080628093EB000FC082E190E03A
:10381000EAE6F0E157CF89E090E0E1E4F0E152CF51
:1038200080E490E0EFEEFFE04DCFAA960FB6F8945B
:10383000DEBF0FBECDBFDF91CF911F9108951F92C4
:103840000F920FB60F9211242F933F934F935F93D4
:103850006F937F938F939F93AF93BF93CF93DF9398
:10386000EF93FF93C091E900CF708091EC00D82FC7
:10387000D17080FDD0E81092E9008091F000877F40
:103880008093F00078940E944A191092E900809188
:10389000F00088608093F000CD2BCF70C093E900DA
:1038A000FF91EF91DF91CF91BF91AF919F918F9158
:1038B0007F916F915F914F913F912F910F900FBE2C
:1038C0000F901F901895E8EDF0E080818E7F808347
:1038D0001092E2001092DA001092E100A0EEB0E047
:1038E0008C9181608C9380818F77808319BCA7ED48
:1038F000B0E08C918E7F8C9380818F7E808310923C
:103900002B050895CF92DF92EF92FF920F931F93B2
:10391000CF93DF93C8EDD0E088818F7E8883E7ED79
:10392000F0E080818160808384E082BF81E08093C9
:103930002B0588818E7F888302EE10E0F8011082CB
:103940001092DA0081EEC82ED12CF6011082888107
:103950008F77888388818068888388818F7D88833A
:1039600019BC1092520510925305109251051092F5
:10397000500590EEE92EF12CF70180818B7F80833A
:1039800088818160888342E060E080E00E94261E9A
:10399000F60180818E7F8083F80180818160808341
:1039A000808188608083F70180818E7F8083888119
:1039B00080618883DF91CF911F910F91FF90EF90ED
:1039C000DF90CF9008951F920F920FB60F9211249F
:1039D0002F933F934F935F936F937F938F939F9317
:1039E000AF93BF93EF93FF938091E10082FF09C0F3
:1039F0008091E20082FF05C08091E1008B7F80937F
:103A0000E1008091DA0080FF2AC08091D80080FF19
:103A100026C08091DA008E7F8093DA008091D900F1
:103A200080FF18C080E189BD82E189BD09B400FE34
:103A3000FDCF81E08093520580912B0581110FC04D
:103A40000E94631C0E94821C8091E200846080932B
:103A5000E20005C019BC1092520510922B0580910E
:103A6000E10080FF17C08091E20080FF13C08091C9
:103A7000E2008E7F8093E2008091E200806180937B
:103A8000E2008091D80080628093D80019BC85E064
:103A9000809352058091E10084FF3BC08091E20059
:103AA00084FF37C080E189BD82E189BD09B400FE91
:103AB000FDCF8091D8008F7D8093D8008091E10068
:103AC0008F7E8093E1008091E2008F7E8093E20000
:103AD0008091E20081608093E20080915305882309
:103AE00011F084E007C08091E30087FD02C081E00F
:103AF00001C083E0809352050E948B2B0E94DD233E
:103B000010922D0580912C0581110E9485120E9432
:103B1000A1258091E10083FF27C08091E20083FF0F
:103B200023C08091E100877F8093E10082E0809351
:103B30005205109253058091E1008E7F8093E10041
:103B40008091E2008E7F8093E2008091E2008061AC
:103B50008093E20042E060E080E00E94261E8091B7
:103B6000F00088608093F000FF91EF91BF91AF91DA
:103B70009F918F917F916F915F914F913F912F9185
:103B80000F900FBE0F901F90189520915205243072
:103B900021F4BC0184E00C9400260895BC01605817
:103BA000710983E00C9400262091E4003091E50037
:103BB00095E64091EC00842F817040FF23C08091F6
:103BC000E80080FD1DC080915205882399F0853062
:103BD00099F08091EB0085FD11C04091E400509177
:103BE000E5002417350729F3915011F09A01E1CF30
:103BF00084E0089582E0089583E0089581E00895C7
:103C000080E008954091E80042FFDDCF0895809163
:103C1000540587FF11C08091E80082FD05C08091A6
:103C200052058111F8CF11C08091E8008B770BC04D
:103C300080915205882349F08091E80080FFF8CFF9
:103C40008091E8008E778093E8000895982F973050
:103C500068F59093E900981739F07091EC00209185
:103C6000ED005091F00003C0242F762F50E021FD8D
:103C700002C09F5FECCF3091EB003E7F3093EB00B2
:103C80003091ED003D7F3093ED003091EB003160DD
:103C90003093EB007093EC002093ED005093F00014
:103CA0002091EE0027FDE5CF80E008958F7080938E
:103CB000E90081E0089520915A0530915B052617AF
:103CC000370748F06115710539F42091E8002E7727
:103CD0002093E80001C0B901FC0120E061157105E5
:103CE00079F1809152058823F1F18530F1F18091CD
:103CF000E80083FD3CC08091E80082FD2EC08091E9
:103D0000E80080FFEBCF2091F3008091F20090E07B
:103D1000922B6115710551F08830910538F421918D
:103D20002093F100615071090196F3CF21E00897CB
:103D300009F020E08091E8008E778093E800CECFF4
:103D40002111CFCF0AC080915205882361F08530C0
:103D500061F08091E80083FD0AC08091E80082FF55
:103D6000F2CF80E0089582E0089583E0089581E035
:103D70000895CF93DF93CDB7DEB72A970FB6F894A7
:103D8000DEBF0FBECDBF84B7877F84BF0FB6F89468
:103D9000A895809160008861809360001092600017
:103DA0000FBE90E080E80FB6F89480936100909386
:103DB00061000FBE85B7806885BF85B7806885BF05
:103DC0000E94631C0E94821C8091E20084608093A8
:103DD000E2007894809152058823A1F01091E900C7
:103DE0001F709091EC00892F817090FD80E8182B56
:103DF0001092E9008091E80083FD0E944A191F702B
:103E00001093E90082E084BD93E095BD9AEF97BDE1
:103E100080936E000E940C1590E090930C018093AB
:103E20000B010E9420180E942F18A8E6B5E0E0E8D8
:103E3000F5E011921D9225E0EE38F207D1F78EE001
:103E400090E00E94032E80935E0590935F05FC0135
:103E50000E962BEF2193E817F907E1F780E090E049
:103E60000E94812D8F3E9E4F11F00E9426278CE0EC
:103E700090E00E94732D90E0A0E0B0E08093600598
:103E800090936105A0936205B093630589EA8093DE
:103E9000800089E08093810024982C983F988AB113
:103EA0008F7C8AB96E98479A8BB180638BB9769A6A
:103EB0008FE090E00E947B2D609364057093650510
:103EC00080936605909367056770FFEF6F9FB00161
:103ED0001124759567957595679577277093890077
:103EE0006093880070938B0060938A0070938D00BC
:103EF00060938C000E94831580E090E00E94812DE9
:103F00008F3E9E4F11F00E94262782E090E00E9493
:103F1000732D80939C050E941527909377058093BD
:103F2000760583E090E00E94732D682F70E080E0BA
:103F300090E00E94FC2880917805811135C080E0D6
:103F400090E00E94812D8F3E9E4F21F00E942627F7
:103F50000E94A31288E090E00E947B2D609394055C
:103F60007093950580939605909397056E7F71F4F5
:103F70000E94A31288E090E00E947B2D609394053C
:103F80007093950580939605909397050E94011272
:103F900010929A058091940580FF03C086950E9437
:103FA000821281E0809378056091790570917A059D
:103FB00080917B0590917C050E948C168DE091E0AC
:103FC00090937E0580937D05F8EAEF2EF0E1FF2EB9
:103FD00080915205853009F069C080915205843086
:103FE00009F441C010927F0520E488E190E00FB60B
:103FF000F894A895809360000FBE20936000109203
:104000009A0580912D05811117C081E080932D05BF
:1040100080919405982F917090932C058E7F8093BA
:104020009405FFEF20E782E0F15020408040E1F767
:1040300000C000000E94F31583B7817F846083BFB6
:1040400083B7816083BF7894889583B78E7F83BF61
:104050000FB6F894A8958091600088618093600005
:10406000109260000FBE80915105882309F4B0CFF3
:104070000E940C1590E090930C0180930B010E941C
:1040800020180E942F18E0E8F5E0119295E0EE3834
:10409000F907D9F70E943618E0E8F5E0819181111F
:1040A000F5C025E0EE38F207C9F792CF0E94361826
:1040B000EDE9F5E0A0E8B5E000E010E0302F2D914B
:1040C0009191922721F180E0DD24D3944D2D492355
:1040D000D1F089833A832D2181E009F480E08B833C
:1040E0000E9483268160782F9D838C8349815A8129
:1040F0006B818D810E94D622F801E356FA4F8081B0
:10410000D826D08219C08F5FDD0C8630F9F60F5F9C
:104110001F4F0E30110591F68FEF8E838F83188617
:104120000E9483268160782F9A8789874E815F81DC
:1041300068858A850E94D62280919A05882309F491
:1041400099C080919905E0919405E695E81BE0936C
:104150009005823059F4F0E0EA54FF4EE4910E2FBE
:1041600010E0E2ECCE2EE2E2DE2E58C0863059F4AA
:10417000F0E0ED54FF4EE4910E2F10E072EBC72EED
:1041800072E2D72E4BC0893061F4E695F0E0E0553D
:10419000FF4EE4910E2F10E06DE5C62E61E2D62EA3
:1041A0003DC08F3061F4E695F0E0E355FF4EE491B9
:1041B0000E2F10E054E4C52E52E2D52E2FC08531CB
:1041C00059F4F0E0E655FF4EE4910E2F10E044EF75
:1041D000C42E41E2D42E22C0883199F0833241F4BA
:1041E000F701059114913DE4C32E34E2D32E16C09D
:1041F000843271F404EF11E027E8C22E21E2D22EBE
:104200000DC008EE13E091ECC92E91E2D92E06C044
:1042100000ED17E08CE5C82E81E2D82E8091910543
:10422000882389F0109291050E9483269801209599
:104230003095820F931F90938F0580938E05109277
:1042400093051092920580918E0590918F050E94A2
:1042500059268017910770F0E0918E05F0918F0537
:104260000E0F1F1F10938F0500938E058EE895E0AB
:10427000F60109950E94DD2390919B05891709F4A9
:10428000A7CE0E94DD2380939B05A2CE80E189BD4D
:1042900082E189BD09B400FEFDCF8091D8008F7DF9
:1042A0008093D8008091E00082608093E00080914C
:1042B000E00081FDFCCF8CCE0895EF92FF921F931A
:1042C000CF93DF93EC018EEAE82E85E0F82E10E024
:1042D0008C8197014091970560919605810F0E940E
:1042E000B2121F5E84E0E80EF11C1F3F89F70E94A6
:1042F000F3159A818C8190FF02C08F5F01C08150BD
:104300008C83DF91CF911F91FF90EF900895EF92F2
:10431000FF920F931F93CF93DF938C01CEEAD5E0EA
:10432000E12CF12CF8018481F7E0EF16F1041CF484
:10433000882339F002C0811104C09E014091970585
:1043400002C09E0140E060919605809195050E9413
:10435000B2128FEFE81AF80A24969FE0E916F104EA
:1043600009F70E94F315F801848190E001968170AD
:1043700099278483DF91CF911F910F91FF90EF9048
:104380000895EF92FF920F931F93CF93DF93EC0169
:104390008C819D810196817099279D838C838EEA03
:1043A000E82E85E0F82E10E005E5212F26958C817A
:1043B0009D81820F911D81709701409197056091B9
:1043C0009605809F802D11240E94B2121F5F84E009
:1043D000E80EF11C1F3049F7DF91CF911F910F912B
:1043E000FF90EF900C94F3150F931F93CF93DF93EF
:1043F000CEEAD5E0FE011182108212821382349639
:1044000085E0EA3EF807B9F700E010E08091AC05DE
:10441000082E000C990B0817190794F080912301BE
:10442000082E000C990B8017910754F09E014091C3
:10443000970560919605809195050E94B21204C07F
:10444000198218821A821B820F5F1F4F24960F3029
:104450001105E1F60E94F315809122019091AC05BF
:10446000980F9093AC0520912301280F20932301EE
:10447000121614F49E301CF0819580932201DF9176
:10448000CF911F910F910895BF92CF92DF92EF923B
:10449000FF920F931F93CF93DF93FC01828180FFE4
:1044A00003C0DD24DA9402C0DD24D3940EEA15E0C3
:1044B000C0E0D0E02FE0B22EF8011182108212820B
:1044C000138294E0E92EF12CC12C8091AB058C0D68
:1044D00080312CF06B2D0E94BB2D892F02C087FDEF
:1044E000815F082E000C990BC817D90791F48091B1
:1044F00097058E9DA0018F9D500D112455954795D0
:1045000055954795980160919605809195050E9473
:10451000B212CD0CF1E0EF1AF108B9F621960C5F5A
:104520001F4FCF30D10541F60E94F3158091AB05A6
:1045300091E0D91206C0811102C08EE007C08150FF
:1045400005C090E00196BE010E94DD2D8093AB0571
:10455000DF91CF911F910F91FF90EF90DF90CF905F
:10456000BF900895CF93DF93EC01E4E9F5E0438138
:1045700062818C810E9447138C818F5F8C83DF91D5
:10458000CF910895CF93DF93EC01EC81F0E0E154FB
:10459000FF4E4491E4E9F5E0628181810E94471376
:1045A0008C818F5F8C83DF91CF9108950F931F9340
:1045B000CF93DF93CDB7DEB767970FB6F894DEBF22
:1045C0000FBECDBF4B8B5C8B6D8B7E8B8F8B0E8923
:1045D0001F890115110531F05F3F31F481E04F3F34
:1045E00019F403C081E001C080E080FD32C0242FB7
:1045F00030E0A1E0B0E0042E01C0AA0F0A94EAF76F
:10460000852F90E0662319F070919B0605C0FC0190
:10461000E051FA4F70817A237723A1F046E0489F5A
:10462000F001499FF00D1124E20FF31FEE0FFF1F61
:10463000E75BFE4F40815181FC01E051FA4F9081D0
:10464000A92B06C0FC01E051FA4FA0958081A82358
:10465000A08386E0FE013D96DF01982F1D929A957A
:10466000E9F74D875E876F87198B088BDE011796F8
:1046700001900D928A95E1F7CE0107960E94A1293B
:1046800081113EC086E0FE013796DE011196019051
:104690000D928A95E1F7FF81E8856A857B85611532
:1046A000710531F0EF3F31F481E0FF3F19F403C0B1
:1046B00081E001C080E080FD23C02091240630E02D
:1046C000C9010196877099274091550650E08417DB
:1046D000950779F1F983EA837D836C8396E0929F55
:1046E000D001939FB00D1124AB5DB94FFE013196FF
:1046F00001900D929A95E1F7809324060E94062975
:1047000016E080915506909124068917F9F0189FBC
:10471000C00111248B5D994F0E94A1298823B1F01B
:104720008091550690E001968770992780935506F1
:10473000E8CF0E948B2B1092240610925506EEE1D2
:10474000F6E086E0DF011D928A95E9F767960FB6DD
:10475000F894DEBF0FBECDBFDF91CF911F910F91B7
:1047600008952091EE053091EF052817390771F073
:104770009093EF058093EE05E0917D05F0917E0525
:10478000309721F00084F185E02D0994089520915F
:10479000EC053091ED052817390771F09093ED0580
:1047A0008093EC05E0917D05F0917E05309721F036
:1047B0000680F781E02D09940895E0917D05F09140
:1047C0007E05309721F00190F081E02D099480E082
:1047D00008958F929F92AF92BF92EF92FF920F93A4
:1047E0001F93CF93DF93EC017B01042F8090790519
:1047F00090907A05A0907B05B0907C050E948B2B51
:104800000E94F72886E0080280011124CE15DF05FA
:1048100031F0CE010E94FF08C00FD11FF7CF0E94D8
:104820008B2B8092790590927A05A0927B05B092AD
:104830007C05DF91CF911F910F91FF90EF90BF907A
:10484000AF909F908F9008959091940590FF04C031
:104850009695981740F003C0811105C090E0961717
:1048600010F40C9499120C948D12882311F0FA0113
:1048700001C0FB0109949091940590FF0DC0EEEAF0
:10488000F5E08183608342831382349695E0EA3EAB
:10489000F907B9F70C94F31508950F931F93CF936D
:1048A000DF9300D000D0CDB7DEB78C018091AD058D
:1048B00081110AC09E012F5F3F4F4FEF6FEF0E94A3
:1048C000B2128A818093AD05F8018481813051F064
:1048D00028F0823061F44091AD050AC08091AD05A9
:1048E00040E007C06091AD0540E080E003C040E0DB
:1048F00080E060E00E943B24F801848190E0019612
:1049000063E070E00E94DD2D84830F900F900F9084
:104910000F90DF91CF911F910F9108955F926F9249
:104920007F928F929F92AF92BF92CF92DF92EF923F
:10493000FF920F931F93CF93DF9300D000D0CDB79A
:10494000DEB7182F762E042F622E9091940590FFDB
:104950006DC0E92FE695AE2FB0E0AC5DBE4F8C91F7
:10496000809399059E7F923061F49E012F5F3F4FA7
:10497000812F0E94B2124B8169818A810E943B245F
:1049800043C0823019F4009197053EC0863019F477
:104990001091950539C08930D9F38931A9F5E951CC
:1049A0008E2F8170582EE695F0E0E654FF4EA590CC
:1049B000B4908EEAC82E85E0D82EE12CF12CBB24D1
:1049C0009FE0892E912CAE9CC001AF9C900DBE9CA7
:1049D000900D1124B4010E94C92D812F511002C0E5
:1049E000860F01C0861B9601402F672D0E94B212D0
:1049F0008FEFE81AF80A84E0C80ED11C8FE0E816A1
:104A0000F10409F70E94F31510939505709296052D
:104A100000939705662051F060919405709195057B
:104A200080919605909197050E9414120F900F9017
:104A30000F900F90DF91CF911F910F91FF90EF900A
:104A4000DF90CF90BF90AF909F908F907F906F90AE
:104A50005F90089520E00C948E240F931F93CF93C2
:104A6000DF93C62FD42F122FFC0182818823C9F037
:104A7000609325050E9483269093EB058093EA05B9
:104A800080E28C0F883008F057C0C77081E001C009
:104A9000880FCA95EAF7DF91CF911F910F910C947F
:104AA000C02B80912505681330C08091EA05909154
:104AB000EB050E945926883C910538F500E20D0F60
:104AC000CD17B9F080E28C0F883040F4C77081E0D8
:104AD00001C0880FCA95EAF70E94B52B083028F567
:104AE00081E09D2F977001C0880F9A95EAF70E9488
:104AF000C02B812F0E94262C0830F0F4D77081E063
:104B000001C0880FDA95EAF70AC080E28C0F88307E
:104B100098F4C77081E001C0880FCA95EAF7DF9169
:104B2000CF911F910F910C94B52B812FDF91CF91D5
:104B30001F910F910C94262CDF91CF911F910F9113
:104B4000089560919405669570E04BE050E087E130
:104B500091E00E94242F892B19F481E080939A051B
:104B60000E94832690938F0580938E050895089563
:104B700080912F050895CF93DF9320915205243023
:104B8000E1F520910A01222339F02091760527FFD3
:104B900003C060E222E002C068E021E02093E90067
:104BA0002FEF3091E800215035FD06C035ED3A95E4
:104BB000F1F700002111F5CF2091E80025FF1DC07D
:104BC000EC0180910A01811105C040E050E068E0ED
:104BD00070E003C070E040E050E0CE010E941E197A
:104BE0008091E8008E778093E80080E2FE01A0E3E8
:104BF000B5E001900D928A95E1F7DF91CF9108958C
:104C0000CF93DF9300D01F92CDB7DEB790915205BE
:104C1000943019F589837B836A8382E08093E9006D
:104C20008FEF9091E800815095FD06C095ED9A9523
:104C3000F1F700008111F5CF8091E80085FF0DC0EC
:104C400040E050E063E070E0CE0101960E941E1942
:104C50008091E8008E778093E8000F900F900F907E
:104C6000DF91CF91089578941F920F920FB60F9213
:104C700011248F939F93AF93BF9380919606909149
:104C80009706A0919806B09199060196A11DB11DB5
:104C90008093960690939706A0939806B0939906F2
:104CA000BF91AF919F918F910F900FBE0F901F906A
:104CB0001895CF92DF92EF92FF920F931F932FB729
:104CC000F8944091960650919706609198067091DD
:104CD00099062FBF6A017B01EE24FF248C0120E09E
:104CE00030E0C016D106E206F30610F44150510937
:104CF0009A01281B390BC9011F910F91FF90EF906A
:104D0000DF90CF9008952FB7F894809196069091F8
:104D10009706A0919806B09199062FBF08951F920B
:104D20000F920FB60F9211248F939F93AF93BF935F
:104D300080917F05811113C080919606909197060E
:104D4000A0919806B09199064196A11DB11D80933E
:104D5000960690939706A0939806B0939906BF91F4
:104D6000AF919F918F910F900FBE0F901F9018954C
:104D700020910A012223C9F02091760527FF15C052
:104D8000262F2695269526952E31C8F4FC01E20F94
:104D9000F11D677081E090E001C0880F6A95EAF725
:104DA00080959281892382830895FC010696228151
:104DB000621301C012823196E817F907C1F708950E
:104DC00020910A012223C1F02091760527FF14C00B
:104DD000262F2695269526952E3130F5FC01E20FDB
:104DE000F11D677081E090E001C0880F6A95EAF7D5
:104DF0009281892B82830895FC0132962FEF30E057
:104E00004191641789F02F3F19F4411101C0232FFC
:104E10003F5F3630A9F72F3F39F0FC01E20FF11D5B
:104E200027FDFA95628308950895CF9384E090E07A
:104E30000E94732DC82F81E290E00E94732D2C2FC9
:104E400030E0A901582BCA01CF9108956FEE7EEF93
:104E500080E090E00E94A52D60E082E090E00E945A
:104E6000872D60E083E090E00E94872D10929206EB
:104E700010929306109294061092950660E084E0DA
:104E800090E00E94872D60E081E290E00E94872DF3
:104E900060E085E090E00E94872D60E086E090E091
:104EA0000E94872D6FEF87E090E00E94872D40E001
:104EB00050E0BA0188E090E00E94992D60E08DE01A
:104EC00090E00E94872D40E050E0BA0188E190E038
:104ED0000E94992D60E087E190E00E94872D40E0DC
:104EE00050E0BA018CE190E00E94992D60E080E2F0
:104EF00090E00E94872D1092640510926505109233
:104F000066051092670584E0806180936405409196
:104F100064055091650560916605709167058FE0A5
:104F200090E00E94992D40E050E0BA0183E190E0CA
:104F30000C94992D809191068111109291060895FB
:104F40009091900680918F06892B20918E06982F44
:104F5000922B9093FE05809191068823D9F0892B9E
:104F60008093FE0580910A01882331F080917605B7
:104F700087FF02C08EE101C086E0E0E0F6E090E04D
:104F8000815028F021912223D9F39F5FF9CF91110D
:104F90000E949A27E0917D05F0917E053097A9F057
:104FA00080910A01882359F08091760587FF07C018
:104FB0008091FE058093FF0585E08093FE050280C9
:104FC000F381E02D8EEF95E009940895BF92CF9282
:104FD000DF92EF92FF920F931F93CF93DF938C0199
:104FE000C0907905D0907A05E0907B05F0907C0523
:104FF0008091920690919306A0919406B0919506A7
:10500000C82AD92AEA2AFB2ACFE1D0E0D701C60173
:105010000C2E04C0B695A795979587950A94D2F75C
:1050200080FD04C0219790F7B12C07C0BC2EB801B9
:105030008C2F0E9468130197A9F38B2DDF91CF91DC
:105040001F910F91FF90EF90DF90CF90BF90089548
:10505000CF93DF93EC010E94E627BE010E94681304
:10506000DF91CF910895292F220F920F990F890F69
:10507000682F669566956695982F977085E0689F6E
:10508000B001112440E050E080E0FB01E40FF51F87
:10509000EA5AF94F208130E0092E02C03695279553
:1050A0000A94E2F721703327042E01C0220F0A94DC
:1050B000EAF7822B4F5F5F4F4530510531F7089576
:1050C000292F220F920F990F890FE82FE695E69569
:1050D000E695877051E001C0550F8A95EAF785E0A3
:1050E000E89FF0011124EA5AF94F20E030E070E027
:1050F0004081CB01022E02C0969587950A94E2F773
:105100008170819584278523842781932F5F3F4F6A
:105110002530310569F708950E948C166093790552
:1051200070937A0580937B0590937C050C947D2B7E
:105130000F931F9341E050E060E070E004C0440F23
:10514000551F661F771F8A95D2F740955095609539
:1051500070958091790590917A05A0917B05B09129
:105160007C058A019B01082319232A233B23C901BB
:10517000B8011F910F910C948C2820918D06809579
:10518000822380938D06982F977079F430E0482F12
:10519000082E000C550B2417350739F08595859599
:1051A00085950E94982810928D0608950F931F935D
:1051B00041E050E060E070E004C0440F551F661FFE
:1051C000771F8A95D2F78091790590917A05A09101
:1051D0007B05B0917C058A019B01082B192B2A2B9A
:1051E0003B2BC901B8011F910F910C948C2860E0F2
:1051F00070E0CB010C948C28609392067093930618
:1052000080939406909395060C947D2B809155067F
:1052100090912406891719F08F5F8770FBCF08954E
:10522000CF938091230682958F7009F05FC08091A3
:105230002006882309F45AC080915506B0912406AF
:1052400070911E06A0911F064091210650912206E2
:1052500091E07F3F09F090E0692FC6E08B1709F4D9
:1052600045C04115510521F0AF3F21F020E003C0BA
:1052700021E001C0262F90E020FD35C0C89FF0013D
:10528000C99FF00D1124EB5DF94F21812A132BC02A
:105290002081271328C02281211125C02381348138
:1052A0002417350710F421503109241B350B283CF5
:1052B0003105C8F4209123062F7020612093230626
:1052C00026E0289FF001299FF00D1124E65DF94F9B
:1052D00080818F70806180838EE196E00E94FF085C
:1052E000CF910C94062901968770B8CFCF9108957D
:1052F0000E942828292F2F70E92FE295EF704E2F5A
:1053000050E0FA013297EE30F105B8F4EF55FF4F57
:105310000C94F12D803F99F018F4883E70F40FC082
:10532000843F59F40CC0883E50F0813F31F407C0EF
:10533000822F869586958695089580E0089581E070
:105340000895AF92BF92CF92DF92EF92FF920F93A8
:105350001F93CF93DF93CDB7DEB761970FB6F89465
:10536000DEBF0FBECDBF8C0185E0F801DE011D96CA
:1053700001900D928A95E1F7D8013C9111962C91FC
:1053800011971296EC9050911E0660911F06809125
:10539000210690912206009731F06F3F31F441E0F1
:1053A0005F3F19F403C041E001C040E0B42FB17089
:1053B000BB2E40FD43C1F801C380D480A0902006DD
:1053C000AA2009F4E2C040912306C816D90628F0A5
:1053D000D601A81BB90BCD0104C0809590958C0D0A
:1053E0009D1DFF24F394883C910548F0F12C407FEB
:1053F00009F090C08EE196E00E94FF0817C1842F4B
:10540000807F09F052C0621312C0531310C0FE2CEB
:10541000E1100DC04F704061409323068EE196E08D
:105420000E94FF0880912306F801858354C1CD288E
:1054300031F02F3F31F481E03F3F19F403C081E0A8
:1054400001C080E080FD03C081E08E2502C080E0C5
:1054500090E0F82FF170FF2E80FF1CC08091550660
:105460004091240656E0841709F412C190E0589F39
:10547000F001599FF00D1124EB5DF94F6181261366
:1054800006C06081361303C06281E61203C0019634
:105490008770E9CFFE2CEE2009F41DC18091230610
:1054A000816080932306F12C16C1621308C0531348
:1054B00006C0E11004C080912306F80199C03D8721
:1054C0002E878D859E850E947829882369F1EE209C
:1054D00059F120912306822F82958F7090E00297D8
:1054E00074F080911E0690911F0698878F8319860D
:1054F000DB86CA862C87CE0107960E94FF0886E0CD
:10550000F801AEE1B6E001900D928A95E1F70E94B4
:1055100010290DC0621771F03D872E878D859E85FD
:105520000E94782981111AC0C8010E94FF08FF2437
:10553000F394D1C05313F0CFE110EECF8091230646
:10554000F8018583C8010E94FF0886E0EEE1F6E0DD
:10555000DF011D928A95E9F7FA2CBDC0EE2021F3F8
:1055600020912306822F82958F7090E002973CF263
:1055700080911E0690911F069A8389831B82DD828B
:10558000CC822E83CE010196B8CFC816D90638F04A
:10559000C81AD90AB8ECCB16D10450F007C08095D0
:1055A00090958C0D9D1D883C910510F0F12C3EC00E
:1055B000FE2CEE2009F4B8CF621327C0531325C088
:1055C0002091230620FD18C0822F82958F70482FCE
:1055D00050E04115510581F0F80125834F30510508
:1055E00041F08F5F982F9295907F822F8F70892B3B
:1055F0008583C8010E94FF0886E0F801AEE1B6E0AD
:1056000001900D928A95E1F766C03D872E878D85C2
:105610009E850E947829811172CF80912306816036
:1056200080932306C8010E94FF0855C0EEE1F6E012
:1056300086E0DF011D928A95E9F74DC0EE2009F45E
:1056400073CF3D872E878D859E850E947829F82E01
:10565000882309F469CF86E0F801AEE1B6E0019055
:105660000D928A95E1F780911E0690911F060E9487
:10567000282892959F70963041F480919B0691E086
:10568000892780939B0690939A060E94102923C035
:105690003D872E878D859E850E942828292F22955B
:1056A0002F70223028F49F7039F0811105C00BC093
:1056B000243028F49F7049F4805E883020F0C801BF
:1056C0000E94FF08BF2CFB2C06C0D80115969C91A8
:1056D000907F91F7F8CF8F2D61960FB6F894DEBFCB
:1056E0000FBECDBFDF91CF911F910F91FF90EF9033
:1056F000DF90CF90BF90AF90089510928F061092D8
:105700008E060E94A02780E090E00E94C72380E0E0
:1057100090E00C94B1231092900680910A018823A6
:1057200031F08091760587FF02C08EE101C086E0EE
:10573000E0E0F6E0DF011D928A95E9F70C947D2BFD
:10574000882341F0809590918F06892380938F065E
:105750000C94A0270895882339F090918F06892B07
:1057600080938F060C94A0270895882341F080959C
:10577000909190068923809390060C94A027089519
:10578000882339F090919006892B809390060C9491
:10579000A0270895882309F458C0682F823869F437
:1057A0000E94DD2381FF51C069E38EEF95E00E94E6
:1057B000E0260E94A02769E30EC0833891F40E947E
:1057C000DD2380FF42C063E58EEF95E00E94E02676
:1057D0000E94A02763E58EEF95E00E94B8260C9406
:1057E000A027843869F40E94DD2382FF2EC067E47D
:1057F0008EEF95E00E94E0260E94A02767E4EBCFA1
:105800008CEF860F813A38F380E2860F883070F48F
:10581000677081E090E001C0880F6A95EAF7809593
:1058200090919006892380939006D9CF8BE5860FBF
:10583000833020F480E090E00C94C723685A6731ED
:1058400020F480E090E00C94B1230895CF93C82F0A
:105850000E94392CC93349F42FEF87EE93E0215091
:1058600080409040E1F700C000008C2FCF910C9455
:10587000CA2B882309F480C0682F8238B1F40E94B3
:10588000DD2381FD79C069E38EEF95E00E94E0267B
:105890000E94A0272FEF81EE94E02150804090409D
:1058A000E1F700C0000069E317C08338D9F40E9413
:1058B000DD2380FD61C063E58EEF95E00E94E02668
:1058C0000E94A0272FEF81EE94E02150804090406D
:1058D000E1F700C0000063E58EEF95E00E94B82676
:1058E0000C94A0278438B1F40E94DD2382FD44C0CB
:1058F00067E48EEF95E00E94E0260E94A0272FEF3C
:1059000081EE94E0215080409040E1F700C000001B
:1059100067E4E2CF8CEF860F813A28F48EEF95E0B2
:105920000E94E026DDCF80E2860F883068F4677041
:1059300081E090E001C0880F6A95EAF790919006A7
:10594000892B80939006CCCFEBE5E60FE33038F45B
:10595000F0E0EF50FE4F808190E00C94C723685A2E
:10596000673150F4E62FF0E0EE0FFF1FEC50FE4FD2
:10597000808191810C94B12308951092B9008CE03C
:105980008093B8000895EF92FF920F931F93CF93E7
:10599000DF93182FEB011092BC0084EA8093BC00C7
:1059A0000E9483267C018091BC0087FD0EC0CF3F02
:1059B0008FEFD807C1F30E9483268E199F098C1799
:1059C0009D0788F38EEF9FEF2EC08091B900887FEE
:1059D000883041F08091B900887F803119F08FEFD5
:1059E0009FEF21C01093BB0084E88093BC000E940D
:1059F00083268C018091BC0087FD0CC0CF3F8FEFC8
:105A0000D807C1F30E948326801B910B8C179D073A
:105A100088F3D8CF8091B900887F883111F0803425
:105A2000F1F680E090E0DF91CF911F910F91FF9010
:105A3000EF9008950F931F93CF93DF93EB01809323
:105A4000BB0084E88093BC000E9483268C01809177
:105A5000BC0087FD0EC0CF3F8FEFD807C1F30E9477
:105A60008326801B910B8C179D0788F38EEF9FEF89
:105A70000CC02091B900287F81E090E0283211F419
:105A800080E090E0919581959109DF91CF911F91F0
:105A90000F9108950F931F93CF93DF93EC0184E848
:105AA0008093BC000E9483268C018091BC0087FDFE
:105AB0000EC0CF3F8FEFD807C1F30E948326801B13
:105AC000910B8C179D0788F38EEF9FEF03C0809199
:105AD000BB0090E0DF91CF911F910F91089584E971
